{
  "contractName": "Pokemon",
  "abi": [
    {
      "constant": true,
      "inputs": [],
      "name": "pokemon_count",
      "outputs": [
        {
          "name": "",
          "type": "uint256"
        }
      ],
      "payable": false,
      "stateMutability": "view",
      "type": "function"
    },
    {
      "constant": true,
      "inputs": [
        {
          "name": "",
          "type": "address"
        },
        {
          "name": "",
          "type": "uint256"
        }
      ],
      "name": "player_pokemon_map",
      "outputs": [
        {
          "name": "",
          "type": "uint256"
        }
      ],
      "payable": false,
      "stateMutability": "view",
      "type": "function"
    },
    {
      "constant": true,
      "inputs": [],
      "name": "max_auction",
      "outputs": [
        {
          "name": "",
          "type": "uint256"
        }
      ],
      "payable": false,
      "stateMutability": "view",
      "type": "function"
    },
    {
      "constant": true,
      "inputs": [],
      "name": "owner",
      "outputs": [
        {
          "name": "",
          "type": "address"
        }
      ],
      "payable": false,
      "stateMutability": "view",
      "type": "function"
    },
    {
      "constant": true,
      "inputs": [
        {
          "name": "",
          "type": "uint256"
        }
      ],
      "name": "auction_mp",
      "outputs": [
        {
          "name": "owners",
          "type": "address"
        },
        {
          "name": "id",
          "type": "uint256"
        }
      ],
      "payable": false,
      "stateMutability": "view",
      "type": "function"
    },
    {
      "constant": true,
      "inputs": [
        {
          "name": "",
          "type": "uint256"
        }
      ],
      "name": "player_index",
      "outputs": [
        {
          "name": "",
          "type": "address"
        }
      ],
      "payable": false,
      "stateMutability": "view",
      "type": "function"
    },
    {
      "constant": true,
      "inputs": [
        {
          "name": "",
          "type": "address"
        }
      ],
      "name": "registered_players",
      "outputs": [
        {
          "name": "",
          "type": "bool"
        }
      ],
      "payable": false,
      "stateMutability": "view",
      "type": "function"
    },
    {
      "constant": true,
      "inputs": [
        {
          "name": "",
          "type": "uint256"
        }
      ],
      "name": "max_auction_items",
      "outputs": [
        {
          "name": "",
          "type": "uint256"
        }
      ],
      "payable": false,
      "stateMutability": "view",
      "type": "function"
    },
    {
      "constant": true,
      "inputs": [],
      "name": "player_count",
      "outputs": [
        {
          "name": "",
          "type": "uint256"
        }
      ],
      "payable": false,
      "stateMutability": "view",
      "type": "function"
    },
    {
      "constant": true,
      "inputs": [
        {
          "name": "",
          "type": "uint256"
        }
      ],
      "name": "transfer_mp",
      "outputs": [
        {
          "name": "owners",
          "type": "address"
        },
        {
          "name": "sent_id",
          "type": "uint256"
        },
        {
          "name": "want_id",
          "type": "uint256"
        },
        {
          "name": "time",
          "type": "uint256"
        }
      ],
      "payable": false,
      "stateMutability": "view",
      "type": "function"
    },
    {
      "constant": true,
      "inputs": [],
      "name": "max_auction_address",
      "outputs": [
        {
          "name": "",
          "type": "address"
        }
      ],
      "payable": false,
      "stateMutability": "view",
      "type": "function"
    },
    {
      "inputs": [],
      "payable": true,
      "stateMutability": "payable",
      "type": "constructor"
    },
    {
      "anonymous": false,
      "inputs": [
        {
          "indexed": false,
          "name": "id",
          "type": "uint256"
        }
      ],
      "name": "dropped",
      "type": "event"
    },
    {
      "constant": false,
      "inputs": [
        {
          "name": "count",
          "type": "uint256"
        }
      ],
      "name": "random_number",
      "outputs": [
        {
          "name": "",
          "type": "uint256"
        }
      ],
      "payable": false,
      "stateMutability": "nonpayable",
      "type": "function"
    },
    {
      "constant": false,
      "inputs": [],
      "name": "register",
      "outputs": [
        {
          "name": "",
          "type": "bool"
        }
      ],
      "payable": false,
      "stateMutability": "nonpayable",
      "type": "function"
    },
    {
      "constant": true,
      "inputs": [],
      "name": "isRegistered",
      "outputs": [
        {
          "name": "",
          "type": "bool"
        }
      ],
      "payable": false,
      "stateMutability": "view",
      "type": "function"
    },
    {
      "constant": false,
      "inputs": [],
      "name": "length_of_array",
      "outputs": [
        {
          "name": "",
          "type": "uint256"
        }
      ],
      "payable": false,
      "stateMutability": "nonpayable",
      "type": "function"
    },
    {
      "constant": false,
      "inputs": [],
      "name": "display_pokemons",
      "outputs": [
        {
          "name": "",
          "type": "uint256[]"
        }
      ],
      "payable": false,
      "stateMutability": "nonpayable",
      "type": "function"
    },
    {
      "constant": false,
      "inputs": [],
      "name": "random_drop",
      "outputs": [],
      "payable": false,
      "stateMutability": "nonpayable",
      "type": "function"
    },
    {
      "constant": false,
      "inputs": [
        {
          "name": "id",
          "type": "uint256"
        },
        {
          "name": "addr",
          "type": "address"
        }
      ],
      "name": "id_in_address",
      "outputs": [
        {
          "name": "",
          "type": "bool"
        }
      ],
      "payable": false,
      "stateMutability": "nonpayable",
      "type": "function"
    },
    {
      "constant": false,
      "inputs": [
        {
          "name": "addr",
          "type": "address"
        },
        {
          "name": "id",
          "type": "uint256"
        }
      ],
      "name": "remove",
      "outputs": [],
      "payable": false,
      "stateMutability": "nonpayable",
      "type": "function"
    },
    {
      "constant": false,
      "inputs": [
        {
          "name": "id",
          "type": "uint256"
        }
      ],
      "name": "put_in_action",
      "outputs": [],
      "payable": false,
      "stateMutability": "nonpayable",
      "type": "function"
    },
    {
      "constant": false,
      "inputs": [
        {
          "name": "items",
          "type": "uint256[]"
        }
      ],
      "name": "auction",
      "outputs": [],
      "payable": false,
      "stateMutability": "nonpayable",
      "type": "function"
    },
    {
      "constant": false,
      "inputs": [],
      "name": "auction_end",
      "outputs": [],
      "payable": false,
      "stateMutability": "nonpayable",
      "type": "function"
    },
    {
      "constant": false,
      "inputs": [
        {
          "name": "id1",
          "type": "uint256"
        },
        {
          "name": "id2",
          "type": "uint256"
        }
      ],
      "name": "put_in_transfer",
      "outputs": [],
      "payable": false,
      "stateMutability": "nonpayable",
      "type": "function"
    },
    {
      "constant": false,
      "inputs": [],
      "name": "transfer_not_happened",
      "outputs": [],
      "payable": false,
      "stateMutability": "nonpayable",
      "type": "function"
    }
  ],
  "bytecode": "0x6080604052600060055533600360006101000a81548173ffffffffffffffffffffffffffffffffffffffff021916908373ffffffffffffffffffffffffffffffffffffffff1602179055506000600281905550600a600481905550612082806100696000396000f30060806040526004361061013e576000357c0100000000000000000000000000000000000000000000000000000000900463ffffffff1680631aa3a008146101435780631bef165b1461016e578063223668441461019957806324c8b110146101c45780633458da39146101ed57806358e46028146102185780635a2936351461022f5780636e6da2ce1461026c5780638da5cb5b1461029757806398a67209146102c2578063a572987914610300578063a629672714610317578063abe7f1ab14610354578063b06752731461037d578063c458b65a146103ba578063c8dca120146103d1578063cddf93e11461040e578063cf7b8c5f1461044b578063d4d9d09d14610476578063de5bef84146104b6578063e6f66cff146104df578063e74a4b421461050a578063f4ad408214610547578063f9ba1ba314610570575b600080fd5b34801561014f57600080fd5b5061015861059b565b6040516101659190611e78565b60405180910390f35b34801561017a57600080fd5b50610183610848565b6040516101909190611e56565b60405180910390f35b3480156101a557600080fd5b506101ae610971565b6040516101bb9190611e78565b60405180910390f35b3480156101d057600080fd5b506101eb60048036036101e69190810190611b5a565b6109c5565b005b3480156101f957600080fd5b50610202610ad0565b60405161020f9190611f53565b60405180910390f35b34801561022457600080fd5b5061022d610ad6565b005b34801561023b57600080fd5b5061025660048036036102519190810190611add565b610bc4565b6040516102639190611f53565b60405180910390f35b34801561027857600080fd5b50610281610bf4565b60405161028e9190611f53565b60405180910390f35b3480156102a357600080fd5b506102ac610bfa565b6040516102b99190611dcd565b60405180910390f35b3480156102ce57600080fd5b506102e960048036036102e49190810190611b5a565b610c20565b6040516102f7929190611de8565b60405180910390f35b34801561030c57600080fd5b50610315610c73565b005b34801561032357600080fd5b5061033e60048036036103399190810190611b5a565b610db0565b60405161034b9190611f53565b60405180910390f35b34801561036057600080fd5b5061037b60048036036103769190810190611add565b610de9565b005b34801561038957600080fd5b506103a4600480360361039f9190810190611b5a565b610f05565b6040516103b19190611dcd565b60405180910390f35b3480156103c657600080fd5b506103cf610f38565b005b3480156103dd57600080fd5b506103f860048036036103f39190810190611ab4565b6112a5565b6040516104059190611e78565b60405180910390f35b34801561041a57600080fd5b5061043560048036036104309190810190611b5a565b6112c5565b6040516104429190611f53565b60405180910390f35b34801561045757600080fd5b506104606112e8565b60405161046d9190611f53565b60405180910390f35b34801561048257600080fd5b5061049d60048036036104989190810190611b5a565b6112ee565b6040516104ad9493929190611e11565b60405180910390f35b3480156104c257600080fd5b506104dd60048036036104d89190810190611bbf565b61134d565b005b3480156104eb57600080fd5b506104f4611677565b6040516105019190611dcd565b60405180910390f35b34801561051657600080fd5b50610531600480360361052c9190810190611b83565b61169d565b60405161053e9190611e78565b60405180910390f35b34801561055357600080fd5b5061056e60048036036105699190810190611b19565b61176d565b005b34801561057c57600080fd5b5061058561194c565b6040516105929190611f53565b60405180910390f35b600060011515600a60003373ffffffffffffffffffffffffffffffffffffffff1673ffffffffffffffffffffffffffffffffffffffff16815260200190815260200160002060009054906101000a900460ff16151514151515610633576040517f08c379a000000000000000000000000000000000000000000000000000000000815260040161062a90611ed3565b60405180910390fd5b600360009054906101000a900473ffffffffffffffffffffffffffffffffffffffff1673ffffffffffffffffffffffffffffffffffffffff163373ffffffffffffffffffffffffffffffffffffffff16141515156106c6576040517f08c379a00000000000000000000000000000000000000000000000000000000081526004016106bd90611f13565b60405180910390fd5b6001600a60003373ffffffffffffffffffffffffffffffffffffffff1673ffffffffffffffffffffffffffffffffffffffff16815260200190815260200160002060006101000a81548160ff0219169083151502179055506000803373ffffffffffffffffffffffffffffffffffffffff1673ffffffffffffffffffffffffffffffffffffffff168152602001908152602001600020610767600454610db0565b90806001815401808255809150509060018203906000526020600020016000909192909190915055503360016000600254815260200190815260200160002060006101000a81548173ffffffffffffffffffffffffffffffffffffffff021916908373ffffffffffffffffffffffffffffffffffffffff160217905550600260008154809291906001019190505550600a60003373ffffffffffffffffffffffffffffffffffffffff1673ffffffffffffffffffffffffffffffffffffffff16815260200190815260200160002060009054906101000a900460ff16905090565b606060011515600a60003373ffffffffffffffffffffffffffffffffffffffff1673ffffffffffffffffffffffffffffffffffffffff16815260200190815260200160002060009054906101000a900460ff1615151415156108df576040517f08c379a00000000000000000000000000000000000000000000000000000000081526004016108d690611eb3565b60405180910390fd5b6000803373ffffffffffffffffffffffffffffffffffffffff1673ffffffffffffffffffffffffffffffffffffffff16815260200190815260200160002080548060200260200160405190810160405280929190818152602001828054801561096757602002820191906000526020600020905b815481526020019060010190808311610953575b5050505050905090565b6000600a60003373ffffffffffffffffffffffffffffffffffffffff1673ffffffffffffffffffffffffffffffffffffffff16815260200190815260200160002060009054906101000a900460ff16905090565b600115156109d3823361169d565b1515141515610a17576040517f08c379a0000000000000000000000000000000000000000000000000000000008152600401610a0e90611e93565b60405180910390fd5b600860408051908101604052803373ffffffffffffffffffffffffffffffffffffffff168152602001838152509080600181540180825580915050906001820390600052602060002090600202016000909192909190915060008201518160000160006101000a81548173ffffffffffffffffffffffffffffffffffffffff021916908373ffffffffffffffffffffffffffffffffffffffff16021790555060208201518160010155505050610acd3382610de9565b50565b60045481565b6000610ae3600454610db0565b905060008060016000610af7600254610db0565b815260200190815260200160002060009054906101000a900473ffffffffffffffffffffffffffffffffffffffff1673ffffffffffffffffffffffffffffffffffffffff1673ffffffffffffffffffffffffffffffffffffffff1681526020019081526020016000208190806001815401808255809150509060018203906000526020600020016000909192909190915055507f49571f93edc72dca1954c08b04e1f036aac0b660e07fdc043721fd13b3cc29f181604051610bb99190611f53565b60405180910390a150565b600060205281600052604060002081815481101515610bdf57fe5b90600052602060002001600091509150505481565b60055481565b600360009054906101000a900473ffffffffffffffffffffffffffffffffffffffff1681565b600881815481101515610c2f57fe5b90600052602060002090600202016000915090508060000160009054906101000a900473ffffffffffffffffffffffffffffffffffffffff16908060010154905082565b6000809050600980549050811015610dad57600080600983815481101515610c9757fe5b906000526020600020906004020160000160009054906101000a900473ffffffffffffffffffffffffffffffffffffffff1673ffffffffffffffffffffffffffffffffffffffff1673ffffffffffffffffffffffffffffffffffffffff168152602001908152602001600020600982815481101515610d1257fe5b9060005260206000209060040201600101549080600181540180825580915050906001820390600052602060002001600090919290919091505550600981815481101515610d5c57fe5b9060005260206000209060040201600080820160006101000a81549073ffffffffffffffffffffffffffffffffffffffff021916905560018201600090556002820160009055600382016000905550505b50565b600060018242446040518083815260200182815260200192505050604051809103902060019004811515610de057fe5b06019050919050565b60008090505b6000808473ffffffffffffffffffffffffffffffffffffffff1673ffffffffffffffffffffffffffffffffffffffff16815260200190815260200160002080549050811015610f0057816000808573ffffffffffffffffffffffffffffffffffffffff1673ffffffffffffffffffffffffffffffffffffffff16815260200190815260200160002082815481101515610e8457fe5b90600052602060002001541415610ef3576000808473ffffffffffffffffffffffffffffffffffffffff1673ffffffffffffffffffffffffffffffffffffffff16815260200190815260200160002081815481101515610ee057fe5b9060005260206000200160009055610f00565b8080600101915050610def565b505050565b60016020528060005260406000206000915054906101000a900473ffffffffffffffffffffffffffffffffffffffff1681565b600080600880549050111515610f4d57600080fd5b6000600554141515611187576000600581905550600090505b60078054905081101561108757610fb8600660009054906101000a900473ffffffffffffffffffffffffffffffffffffffff16600783815481101515610fa857fe5b9060005260206000200154610de9565b60008060086000815481101515610fcb57fe5b906000526020600020906002020160000160009054906101000a900473ffffffffffffffffffffffffffffffffffffffff1673ffffffffffffffffffffffffffffffffffffffff1673ffffffffffffffffffffffffffffffffffffffff16815260200190815260200160002060078281548110151561104657fe5b906000526020600020015490806001815401808255809150509060018203906000526020600020016000909192909190915055508080600101915050610f66565b600080600660009054906101000a900473ffffffffffffffffffffffffffffffffffffffff1673ffffffffffffffffffffffffffffffffffffffff1673ffffffffffffffffffffffffffffffffffffffff168152602001908152602001600020600860008154811015156110f757fe5b90600052602060002090600202016001015490806001815401808255809150509060018203906000526020600020016000909192909190915055506008600081548110151561114257fe5b9060005260206000209060020201600080820160006101000a81549073ffffffffffffffffffffffffffffffffffffffff0219169055600182016000905550506112a2565b6000806008600081548110151561119a57fe5b906000526020600020906002020160000160009054906101000a900473ffffffffffffffffffffffffffffffffffffffff1673ffffffffffffffffffffffffffffffffffffffff1673ffffffffffffffffffffffffffffffffffffffff1681526020019081526020016000206008600081548110151561121657fe5b90600052602060002090600202016001015490806001815401808255809150509060018203906000526020600020016000909192909190915055506008600081548110151561126157fe5b9060005260206000209060020201600080820160006101000a81549073ffffffffffffffffffffffffffffffffffffffff0219169055600182016000905550505b50565b600a6020528060005260406000206000915054906101000a900460ff1681565b6007818154811015156112d457fe5b906000526020600020016000915090505481565b60025481565b6009818154811015156112fd57fe5b90600052602060002090600402016000915090508060000160009054906101000a900473ffffffffffffffffffffffffffffffffffffffff16908060010154908060020154908060030154905084565b6000806001151561135e853361169d565b15151415156113a2576040517f08c379a000000000000000000000000000000000000000000000000000000000815260040161139990611e93565b60405180910390fd5b6113ac3385610de9565b60009150600090505b60098054905081101561159a57826009828154811015156113d257fe5b9060005260206000209060040201600101541480156114105750836009828154811015156113fc57fe5b906000526020600020906004020160020154145b1561158d5760008060098381548110151561142757fe5b906000526020600020906004020160000160009054906101000a900473ffffffffffffffffffffffffffffffffffffffff1673ffffffffffffffffffffffffffffffffffffffff1673ffffffffffffffffffffffffffffffffffffffff1681526020019081526020016000208490806001815401808255809150509060018203906000526020600020016000909192909190915055506000803373ffffffffffffffffffffffffffffffffffffffff1673ffffffffffffffffffffffffffffffffffffffff16815260200190815260200160002083908060018154018082558091505090600182039060005260206000200160009091929091909150555060098181548110151561153457fe5b9060005260206000209060040201600080820160006101000a81549073ffffffffffffffffffffffffffffffffffffffff021916905560018201600090556002820160009055600382016000905550506001915061159a565b80806001019150506113b5565b60008214156116715760096080604051908101604052803373ffffffffffffffffffffffffffffffffffffffff168152602001868152602001858152602001428152509080600181540180825580915050906001820390600052602060002090600402016000909192909190915060008201518160000160006101000a81548173ffffffffffffffffffffffffffffffffffffffff021916908373ffffffffffffffffffffffffffffffffffffffff1602179055506020820151816001015560408201518160020155606082015181600301555050505b50505050565b600660009054906101000a900473ffffffffffffffffffffffffffffffffffffffff1681565b600080600090505b6000808473ffffffffffffffffffffffffffffffffffffffff1673ffffffffffffffffffffffffffffffffffffffff1681526020019081526020016000208054905081101561176157836000808573ffffffffffffffffffffffffffffffffffffffff1673ffffffffffffffffffffffffffffffffffffffff1681526020019081526020016000208281548110151561173a57fe5b906000526020600020015414156117545760019150611766565b80806001019150506116a5565b600091505b5092915050565b60008060006008805490501115156117ba576040517f08c379a00000000000000000000000000000000000000000000000000000000081526004016117b190611ef3565b60405180910390fd5b600860008154811015156117ca57fe5b906000526020600020906002020160000160009054906101000a900473ffffffffffffffffffffffffffffffffffffffff1673ffffffffffffffffffffffffffffffffffffffff163373ffffffffffffffffffffffffffffffffffffffff161415151561183657600080fd5b60009150600090505b82518110156118dd576001151561186d848381518110151561185d57fe5b906020019060200201513361169d565b15151415156118b1576040517f08c379a00000000000000000000000000000000000000000000000000000000081526004016118a890611f33565b60405180910390fd5b600283828151811015156118c157fe5b906020019060200201510182019150808060010191505061183f565b81600554101561194757816005819055508260079080519060200190611904929190611995565b5033600660006101000a81548173ffffffffffffffffffffffffffffffffffffffff021916908373ffffffffffffffffffffffffffffffffffffffff1602179055505b505050565b60008060003373ffffffffffffffffffffffffffffffffffffffff1673ffffffffffffffffffffffffffffffffffffffff16815260200190815260200160002080549050905090565b8280548282559060005260206000209081019282156119d1579160200282015b828111156119d05782518255916020019190600101906119b5565b5b5090506119de91906119e2565b5090565b611a0491905b80821115611a005760008160009055506001016119e8565b5090565b90565b6000611a13823561201e565b905092915050565b600082601f8301121515611a2e57600080fd5b8135611a41611a3c82611f9b565b611f6e565b91508181835260208401935060208101905083856020840282011115611a6657600080fd5b60005b83811015611a965781611a7c8882611aa0565b845260208401935060208301925050600181019050611a69565b5050505092915050565b6000611aac823561203e565b905092915050565b600060208284031215611ac657600080fd5b6000611ad484828501611a07565b91505092915050565b60008060408385031215611af057600080fd5b6000611afe85828601611a07565b9250506020611b0f85828601611aa0565b9150509250929050565b600060208284031215611b2b57600080fd5b600082013567ffffffffffffffff811115611b4557600080fd5b611b5184828501611a1b565b91505092915050565b600060208284031215611b6c57600080fd5b6000611b7a84828501611aa0565b91505092915050565b60008060408385031215611b9657600080fd5b6000611ba485828601611aa0565b9250506020611bb585828601611a07565b9150509250929050565b60008060408385031215611bd257600080fd5b6000611be085828601611aa0565b9250506020611bf185828601611aa0565b9150509250929050565b611c0481611fe8565b82525050565b6000611c1582611fd0565b808452602084019350611c2783611fc3565b60005b82811015611c5957611c3d868351611dbe565b611c4682611fdb565b9150602086019550600181019050611c2a565b50849250505092915050565b611c6e81612008565b82525050565b6000601982527f446f65736e6f742068617665207468617420706f6b656d6f6e000000000000006020830152604082019050919050565b6000600e82527f4e6f7420726567697374657265640000000000000000000000000000000000006020830152604082019050919050565b6000601282527f416c7265616479207265676973746572656400000000000000000000000000006020830152604082019050919050565b6000601282527f4e6f206974656d20696e2041756374696f6e00000000000000000000000000006020830152604082019050919050565b6000601382527f6f776e65722063616e74207265676973746572000000000000000000000000006020830152604082019050919050565b6000600982527f6e6f74206f776e657200000000000000000000000000000000000000000000006020830152604082019050919050565b611dc781612014565b82525050565b6000602082019050611de26000830184611bfb565b92915050565b6000604082019050611dfd6000830185611bfb565b611e0a6020830184611dbe565b9392505050565b6000608082019050611e266000830187611bfb565b611e336020830186611dbe565b611e406040830185611dbe565b611e4d6060830184611dbe565b95945050505050565b60006020820190508181036000830152611e708184611c0a565b905092915050565b6000602082019050611e8d6000830184611c65565b92915050565b60006020820190508181036000830152611eac81611c74565b9050919050565b60006020820190508181036000830152611ecc81611cab565b9050919050565b60006020820190508181036000830152611eec81611ce2565b9050919050565b60006020820190508181036000830152611f0c81611d19565b9050919050565b60006020820190508181036000830152611f2c81611d50565b9050919050565b60006020820190508181036000830152611f4c81611d87565b9050919050565b6000602082019050611f686000830184611dbe565b92915050565b6000604051905081810181811067ffffffffffffffff82111715611f9157600080fd5b8060405250919050565b600067ffffffffffffffff821115611fb257600080fd5b602082029050602081019050919050565b6000602082019050919050565b600081519050919050565b6000602082019050919050565b600073ffffffffffffffffffffffffffffffffffffffff82169050919050565b60008115159050919050565b6000819050919050565b600073ffffffffffffffffffffffffffffffffffffffff82169050919050565b60008190509190505600a265627a7a72305820e8dd7c024474025009324367ef01fb27351aaae3ea3af97e158fd4506415a2c56c6578706572696d656e74616cf50037",
  "source": "pragma solidity ^0.4.24;\npragma experimental ABIEncoderV2;\n\ncontract Pokemon{\n    \n    mapping (address=>uint[]) public player_pokemon_map;\n    \n    mapping (uint=>address) public player_index; \n    uint public player_count;\n    address public owner;\n    uint public pokemon_count;\n    uint public max_auction=0;\n    address public max_auction_address;\n    uint[] public max_auction_items;\n    \n    event dropped(uint id);\n\n    struct auction_items\n    {\n        address owners;\n        uint id;\n    }\n    \n    struct transfer_items\n    {\n        address owners;\n        uint sent_id;\n        uint want_id;\n        uint time;\n    }\n    \n    auction_items[] public auction_mp;\n    transfer_items[] public transfer_mp;\n    \n    constructor() payable\n    {\n        owner=msg.sender;\n        player_count=0;\n        pokemon_count=10;\n        \n    }\n\n\n\n    function random_number(uint count) returns (uint)\n    {\n        return uint256(keccak256(block.timestamp, block.difficulty))%count+1;\n    }\n    \n    mapping (address => bool) public registered_players;\n    \n\n    function register () public returns (bool)\n    {\n\n        require(registered_players[msg.sender]!=true,\"Already registered\");\n        require(msg.sender!=owner,\"owner cant register\");        \n        registered_players[msg.sender]=true;\n\n        player_pokemon_map[msg.sender].push(random_number(pokemon_count));\n        player_index[player_count]=msg.sender;\n        player_count++;\n        return registered_players[msg.sender];\n    }\n\n\n    function isRegistered() public view returns(bool) {\n        return registered_players[msg.sender];\n    }\n\n   function length_of_array() public returns(uint)\n    {\n        return player_pokemon_map[msg.sender].length;\n    } \n\n\n    function display_pokemons() public returns (uint[])\n    {\n        require(registered_players[msg.sender]==true,\"Not registered\");\n        return player_pokemon_map[msg.sender];\n    }\n    \n    function random_drop() public\n    {\n        uint ids=random_number(pokemon_count);\n        player_pokemon_map[player_index[random_number(player_count)]].push(ids);\n        emit dropped(ids);\n    }\n    \n    function id_in_address(uint id, address addr) public returns (bool)\n    {\n        for(uint i=0;i<player_pokemon_map[addr].length;i++)\n        {\n            if(player_pokemon_map[addr][i]==id)\n            {\n                return true;\n            }\n        }\n        return false;\n    }\n    \n    function remove(address addr, uint id) public\n    {\n        for(uint i=0;i<player_pokemon_map[addr].length;i++)\n        {\n            if(player_pokemon_map[addr][i]==id)\n            {\n                delete player_pokemon_map[addr][i];\n                break;\n            }\n        }\n    }\n    \n    function put_in_action(uint id) public\n    {\n        require(id_in_address(id,msg.sender)==true, \"Doesnot have that pokemon\");\n        auction_mp.push(auction_items(msg.sender,id));\n        remove(msg.sender,id);\n    }\n    \n    function auction(uint[] items) public\n    {\n        require(auction_mp.length>0,\"No item in Auction\");\n        require(msg.sender!=auction_mp[0].owners);\n        uint temp=0;\n        for(uint i=0;i<items.length;i++)\n        {\n            require(id_in_address(items[i],msg.sender)==true,\"not owner\");\n            temp+=items[i]+2;\n        }\n        if(max_auction<temp)\n        {\n            max_auction=temp;\n            max_auction_items=items;\n            max_auction_address=msg.sender;\n        }\n    }\n    function auction_end() public\n    {\n        require(auction_mp.length>0);\n        if(max_auction!=0)\n        {\n            max_auction=0;\n            for(uint i=0;i<max_auction_items.length;i++)\n            {\n                remove(max_auction_address,max_auction_items[i]);\n                player_pokemon_map[auction_mp[0].owners].push(max_auction_items[i]);\n            }\n            player_pokemon_map[max_auction_address].push(auction_mp[0].id);\n            delete auction_mp[0];\n        }\n        else\n        {\n            player_pokemon_map[auction_mp[0].owners].push(auction_mp[0].id);\n            delete auction_mp[0];\n        }\n    }\n    \n    function put_in_transfer(uint id1,uint id2) public\n    {\n        require(id_in_address(id1,msg.sender)==true, \"Doesnot have that pokemon\");\n        remove(msg.sender,id1);\n        uint flag=0;\n        for(uint i=0;i<transfer_mp.length;i++)\n        {\n            if(transfer_mp[i].sent_id==id2 && transfer_mp[i].want_id==id1)\n            {\n                player_pokemon_map[transfer_mp[i].owners].push(id1);\n                player_pokemon_map[msg.sender].push(id2);\n                delete transfer_mp[i];\n                flag=1;\n                break;\n            }\n        }\n        if(flag==0)\n        {\n            transfer_mp.push(transfer_items(msg.sender,id1,id2,now));\n        }\n        \n    } \n    \n    function transfer_not_happened() public\n    {\n        for(uint i=0;i<transfer_mp.length;i++)\n        {\n        /*    if(now - transfer_mp[i].time > 500)\n            {\n                player_pokemon_map[transfer_mp[i].owners].push(transfer_mp[i].sent_id);\n                delete transfer_mp[i];\n            }\n            else\n            {\n                break;\n            }\n        */\n        player_pokemon_map[transfer_mp[i].owners].push(transfer_mp[i].sent_id);\n        delete transfer_mp[i];\n        break;\n        }\n    }\n    \n    \n}",
  "sourcePath": "/home/ramarohit/Documents/4-1/Block_chain/assignment3/Rama_bahu/contracts/Pokemon.sol",
  "compiler": {
    "name": "solc",
    "version": "0.4.24+commit.e67f0147.Emscripten.clang"
  },
  "schemaVersion": "2.0.1",
  "updatedAt": "2018-11-14T19:05:29.191Z"
}