{
  "contractName": "PokemonDApp",
  "abi": [
    {
      "inputs": [],
      "payable": false,
      "stateMutability": "nonpayable",
      "type": "constructor"
    },
    {
      "constant": false,
      "inputs": [],
      "name": "register",
      "outputs": [
        {
          "name": "",
          "type": "bool"
        }
      ],
      "payable": false,
      "stateMutability": "nonpayable",
      "type": "function"
    },
    {
      "constant": true,
      "inputs": [],
      "name": "isRegistered",
      "outputs": [
        {
          "name": "",
          "type": "bool"
        }
      ],
      "payable": false,
      "stateMutability": "view",
      "type": "function"
    },
    {
      "constant": true,
      "inputs": [
        {
          "name": "num",
          "type": "uint256"
        }
      ],
      "name": "random",
      "outputs": [
        {
          "name": "",
          "type": "uint256"
        }
      ],
      "payable": false,
      "stateMutability": "view",
      "type": "function"
    }
  ],
  "bytecode": "0x6080604052600060035534801561001557600080fd5b50336000806101000a81548173ffffffffffffffffffffffffffffffffffffffff021916908373ffffffffffffffffffffffffffffffffffffffff1602179055506000600281905550600a600181905550610469806100756000396000f300608060405260043610610057576000357c0100000000000000000000000000000000000000000000000000000000900463ffffffff1680631aa3a0081461005c5780632236684414610087578063b863bd37146100b2575b600080fd5b34801561006857600080fd5b506100716100ef565b60405161007e91906103b9565b60405180910390f35b34801561009357600080fd5b5061009c610231565b6040516100a991906103b9565b60405180910390f35b3480156100be57600080fd5b506100d960048036036100d4919081019061033b565b610285565b6040516100e691906103f4565b60405180910390f35b600060011515600460003373ffffffffffffffffffffffffffffffffffffffff1673ffffffffffffffffffffffffffffffffffffffff16815260200190815260200160002060009054906101000a900460ff16151514151515610187576040517f08c379a000000000000000000000000000000000000000000000000000000000815260040161017e906103d4565b60405180910390fd5b6001600460003373ffffffffffffffffffffffffffffffffffffffff1673ffffffffffffffffffffffffffffffffffffffff16815260200190815260200160002060006101000a81548160ff021916908315150217905550600460003373ffffffffffffffffffffffffffffffffffffffff1673ffffffffffffffffffffffffffffffffffffffff16815260200190815260200160002060009054906101000a900460ff16905090565b6000600460003373ffffffffffffffffffffffffffffffffffffffff1673ffffffffffffffffffffffffffffffffffffffff16815260200190815260200160002060009054906101000a900460ff16905090565b600081424460405160200180838152602001828152602001925050506040516020818303038152906040526040518082805190602001908083835b6020831015156102e557805182526020820191506020810190506020830392506102c0565b6001836020036101000a03801982511681845116808217855250505050505090500191505060405180910390206001900481151561031f57fe5b069050919050565b60006103338235610425565b905092915050565b60006020828403121561034d57600080fd5b600061035b84828501610327565b91505092915050565b61036d8161040f565b82525050565b6000601782527f7573657220616c726561647920726567697374657265640000000000000000006020830152604082019050919050565b6103b38161041b565b82525050565b60006020820190506103ce6000830184610364565b92915050565b600060208201905081810360008301526103ed81610373565b9050919050565b600060208201905061040960008301846103aa565b92915050565b60008115159050919050565b6000819050919050565b60008190509190505600a265627a7a7230582038f9fe9877ecd7cc4069397574d60634ac6320c618aa2520d9ebfc86eb1753436c6578706572696d656e74616cf50037",
  "source": "pragma solidity ^0.4.17;\npragma experimental ABIEncoderV2;\n\ncontract PokemonDApp {\n\n\n    address owner;\n    uint pokemon_count;\n    uint player_count;\n    constructor() public {\n        owner=msg.sender;\n        player_count=0;\n        pokemon_count=10;\n    \n    }\n    int playerCount = 0;\n    \n    mapping (address => bool) registered;\n    function register() public returns(bool){\n        require(registered[msg.sender]!=true,\"user already registered\");\n        registered[msg.sender] = true;\n        return registered[msg.sender];\n    }\n    \n    \n    function isRegistered() public view returns(bool) {\n        return registered[msg.sender];\n    }\n\n\n    function random(uint num) public view returns(uint) {\n        return uint256(keccak256(abi.encodePacked(block.timestamp, block.difficulty)))%num;\n    }\n    \n    \n    \n}",
  "sourcePath": "/home/yashwanth/Documents/4-1/blovk_chains/Rama_bahu/contracts/Pokemon.sol",
  "compiler": {
    "name": "solc",
    "version": "0.4.24+commit.e67f0147.Emscripten.clang"
  },
  "schemaVersion": "2.0.1",
  "updatedAt": "2018-11-14T08:31:02.516Z"
}